:100000000C9437000C94CF000C94CF000C94CF00CC
:100010000C94CF000C94CF000C94CF000C94CF0024
:100020000C94CF000C94CF000C94CF000C94CF0014
:100030000C94CF000C94CF000C94CF000C94CF0004
:100040000C94CF000C94CF000C94CF000C94CF00F4
:100050000C94CF000C94CF000C94CF000C94CF00E4
:100060000C94CF000C94CF000100010180001124FA
:100070001FBECFEFD8E0DEBFCDBFE8E6F0E040E046
:1000800017C0B591A59135912591059107FD0CC03B
:1000900095918591EF01F92FE82F05900D92A21708
:1000A000B307D9F7FE0104C01D92A217B307E1F709
:1000B000ED36F40731F70E9461000C94C000F8940B
:0200C000FFCF70
:1000C2000E94CB0081E08093000120E030E064E0F8
:1000D20051E042E093E07FEF80E7E2E07150804040
:1000E200E040E1F700C00000809100018230A9F0F9
:1000F20018F4813031F039C08330E9F0843039F1BD
:1001020034C0289A29982A982B982D9A2C982A300C
:10011200310559F5409300012FC02898299A2A9851
:100122002B982D9A2C982C303105F9F490930001DC
:1001320020E030E021C0289829982A9A2B9A2D98FD
:100142002C982A30310589F46093000115C0289853
:1001520029982A9A2B982D982C9A2C30310529F41B
:100162005093000120E030E007C02F5F3F4F2D3059
:0E01720031050CF4B0CFFFCF2F5F3F4FACCF65
:10018000EC010E94D4000E94D300CE010E94D50051
:06019000CE010E94D10027
:0801960084B18F6384B9089560
:04019E000C940000BD
:0401A2000E945F0058
:0201A6000895BA
:0201A8000895B8
:0201AA000895B6
:00000001FF
