:100000000C945D000C94E4000C94E4000C94E40067
:100010000C94E4000C94E4000C94E4000C94E400D0
:100020000C94E4000C94E4000C94E4000C94E400C0
:100030000C94E4000C94E4000C94E4000C94E400B0
:100040000C94E4000C94E4000C94E4000C94E400A0
:100050000C94E4000C94E4000C94E4000C94E40090
:100060000C94E4000C94E4000C94E4000C94E40080
:100070000C94E4000C94E4000C94E4000C94E40070
:100080000C94E4000C94E4000C94E4000C94E40060
:100090000C94E4000C94E4000C94E4000C94E40050
:1000A0000C94E4000C94E4000C94E4000C94E40040
:1000B0000C94E40001000101800011241FBECFEF69
:1000C000D8E0DEBFCDBFE4EBF0E040E017C0B59173
:1000D000A59135912591059107FD0CC095918591CC
:1000E000EF01F92FE82F05900D92A217B307D9F76A
:1000F000FE0104C01D92A217B307E1F7E93BF40724
:0E01000031F70E9487000C94D200F894FFCFD4
:10010E000E94DD001092000133E022E091E0809128
:10011E000001813031F0C8F1823051F18330D1F0DD
:10012E00F8CF289885B185B94A9909C0EFE3FCE963
:10013E003197F1F700C0000020930001E8CF4999F4
:10014E00E6CFEFE3FCE93197F1F700C00000309302
:10015E000001DDCF289A85B185B94899D8CFEFE354
:10016E00FCE93197F1F700C0000090930001CFCF6A
:10017E00289A299A4899CBCFEFE3FCE93197F1F70A
:10018E0000C0000090930001C2CF289885B185B9B8
:06019E0090930001BCCFAC
:1001A400EC010E94E9000E94E800CE010E94EA00EE
:0601B400CE010E94E600EE
:0E01BA0084B1887F84B984B1836084B90895CC
:0401C8000C94000093
:0401CC000E94850008
:0201D000089590
:0201D20008958E
:0201D40008958C
:00000001FF
